S0150000446F726D5F426F6172645F56312E7372656350
S11300000C9434000C9446000C9446000C94460066
S11300100C9446000C9446000C9446000C94460044
S11300200C9446000C9446000C9446000C94460034
S11300300C9446000C9446000C9446000C94460024
S11300400C9446000C9446000C9446000C94460014
S11300500C9446000C9446000C9446000C94460004
S11300600C9446000C94460011241FBECFEFD8E038
S1130070DEBFCDBF21E0A0E0B1E001C01D92A03001
S1130080B207E1F70E948E000C94AD000C940000BE
S113009085B984E088B983EC99E00197F1F700C051
S11300A0000018B881EF9BE20197F1F700C000004F
S11300B083EF91E00197F1F700C00000089580E319
S11300C090E00E94480080E390E00E9448008FE0A6
S11300D090E00E94480081E090E00E94480085EA98
S11300E09EE00197F1F700C0000086E090E00E94D6
S11300F0480008951092C50087E68093C40088E103
S11301008093C10086E08093C2000895E0ECF0E0A3
S1130110908195FFFDCF8093C60008958FEF84B939
S113012087B92FE78AE196E0215080409040E1F7BB
S113013000C0000088E088B90E945F000E947A0035
S11301402FEB86EC9DE2215080409040E1F700C007
S1110150000082E50E948600FCCFF894FFCFE9
S9030000FC
