S01A0000446F726D5F426F6172645F42545F546573742E737265633D
S11300000C9434000C943E000C943E000C943E007E
S11300100C943E000C943E000C943E000C943E0064
S11300200C943E000C943E000C943E000C943E0054
S11300300C943E000C943E000C943E000C943E0044
S11300400C943E000C943E000C943E000C943E0034
S11300500C943E000C943E000C943E000C943E0024
S11300600C943E000C943E0011241FBECFEFD8E048
S1130070DEBFCDBF0E9450000C9458000C940000C9
S11300809093C5008093C40088E18093C1000895D3
S1130090E0ECF0E0908195FFFDCF8093C6000895D9
S11300A08BE090E00E94400082E50E944800FCCF73
S10700B0F894FFCFEE
S9030000FC
